{"abi":[{"type":"constructor","inputs":[{"name":"_operatingTokenAddress","type":"address","internalType":"address"},{"name":"_identityVerificationHub","type":"address","internalType":"address"},{"name":"_scope","type":"uint256","internalType":"uint256"},{"name":"_attestationId","type":"uint256","internalType":"uint256"},{"name":"_olderThanEnabled","type":"bool","internalType":"bool"},{"name":"_olderThan","type":"uint256","internalType":"uint256"},{"name":"_forbiddenCountriesEnabled","type":"bool","internalType":"bool"},{"name":"_forbiddenCountriesListPacked","type":"uint256[4]","internalType":"uint256[4]"},{"name":"_ofacEnabled","type":"bool[3]","internalType":"bool[3]"}],"stateMutability":"nonpayable"},{"type":"function","name":"STATUS_ORDER_CANCELLED","inputs":[],"outputs":[{"name":"","type":"uint8","internalType":"uint8"}],"stateMutability":"view"},{"type":"function","name":"STATUS_ORDER_CLAIMED","inputs":[],"outputs":[{"name":"","type":"uint8","internalType":"uint8"}],"stateMutability":"view"},{"type":"function","name":"STATUS_ORDER_FULFILLED","inputs":[],"outputs":[{"name":"","type":"uint8","internalType":"uint8"}],"stateMutability":"view"},{"type":"function","name":"STATUS_ORDER_SUBMITTED","inputs":[],"outputs":[{"name":"","type":"uint8","internalType":"uint8"}],"stateMutability":"view"},{"type":"function","name":"cancelOrder","inputs":[{"name":"id","type":"uint256","internalType":"uint256"}],"outputs":[],"stateMutability":"nonpayable"},{"type":"function","name":"claimOrder","inputs":[{"name":"id","type":"uint256","internalType":"uint256"}],"outputs":[],"stateMutability":"nonpayable"},{"type":"function","name":"fulfillOrder","inputs":[{"name":"id","type":"uint256","internalType":"uint256"}],"outputs":[],"stateMutability":"nonpayable"},{"type":"function","name":"operatingToken","inputs":[],"outputs":[{"name":"","type":"address","internalType":"contract IERC20"}],"stateMutability":"view"},{"type":"function","name":"placeOrder","inputs":[{"name":"bid","type":"uint256","internalType":"uint256"},{"name":"orderDetails","type":"string","internalType":"string"}],"outputs":[],"stateMutability":"nonpayable"},{"type":"function","name":"verifySelfProof","inputs":[{"name":"proof","type":"tuple","internalType":"struct IVcAndDiscloseCircuitVerifier.VcAndDiscloseProof","components":[{"name":"a","type":"uint256[2]","internalType":"uint256[2]"},{"name":"b","type":"uint256[2][2]","internalType":"uint256[2][2]"},{"name":"c","type":"uint256[2]","internalType":"uint256[2]"},{"name":"pubSignals","type":"uint256[21]","internalType":"uint256[21]"}]}],"outputs":[],"stateMutability":"nonpayable"},{"type":"event","name":"OrderClaimed","inputs":[{"name":"id","type":"uint256","indexed":false,"internalType":"uint256"},{"name":"facilitator","type":"address","indexed":false,"internalType":"address"},{"name":"driver","type":"address","indexed":false,"internalType":"address"}],"anonymous":false},{"type":"event","name":"OrderComplete","inputs":[{"name":"id","type":"uint256","indexed":false,"internalType":"uint256"},{"name":"status","type":"uint8","indexed":false,"internalType":"uint8"}],"anonymous":false},{"type":"event","name":"OrderPlaced","inputs":[{"name":"id","type":"uint256","indexed":false,"internalType":"uint256"},{"name":"customer","type":"address","indexed":false,"internalType":"address"},{"name":"curator","type":"address","indexed":false,"internalType":"address"},{"name":"bid","type":"uint256","indexed":false,"internalType":"uint256"},{"name":"orderDetails","type":"string","indexed":false,"internalType":"string"}],"anonymous":false},{"type":"error","name":"InvalidAttestationId","inputs":[]},{"type":"error","name":"InvalidFieldElement","inputs":[]},{"type":"error","name":"InvalidScope","inputs":[]},{"type":"error","name":"SafeERC20FailedOperation","inputs":[{"name":"token","type":"address","internalType":"address"}]}],"bytecode":{"object":"0x60a060405234801561001057600080fd5b50604051611b05380380611b0583398101604081905261002f9161027a565b6001600160a01b038816608052600087905560018690556002805460ff1990811687151517909155600385905560048054909116841515178155889088908890889088908890889088906100879060059084906100db565b506100956009826003610119565b50505050505050505088600a60006101000a8154816001600160a01b0302191690836001600160a01b031602179055506001600b8190555050505050505050505061034e565b8260048101928215610109579160200282015b828111156101095782518255916020019190600101906100ee565b506101159291506101a2565b5090565b6001830191839082156101095791602002820160005b8382111561016c57835183826101000a81548160ff021916908315150217905550926020019260010160208160000104928301926001030261012f565b80156101995782816101000a81549060ff021916905560010160208160000104928301926001030261016c565b50506101159291505b5b8082111561011557600081556001016101a3565b80516001600160a01b03811681146101ce57600080fd5b919050565b805180151581146101ce57600080fd5b604051601f8201601f191681016001600160401b038111828210171561021957634e487b7160e01b600052604160045260246000fd5b604052919050565b600082601f83011261023257600080fd5b61023c60606101e3565b80606084018581111561024e57600080fd5b845b8181101561026f57610261816101d3565b845260209384019301610250565b509095945050505050565b60008060008060008060008060006101c08a8c03121561029957600080fd5b6102a28a6101b7565b98506102b060208b016101b7565b60408b015160608c0151919950975095506102cd60808b016101d3565b60a08b015190955093506102e360c08b016101d3565b92508a60ff8b01126102f457600080fd5b6102fe60806101e3565b806101608c018d81111561031157600080fd5b60e08d015b8181101561032e578051845260209384019301610316565b5081945061033c8e82610221565b93505050509295985092959850929598565b60805161179c6103696000396000610b28015261179c6000f3fe608060405234801561001057600080fd5b506004361061009e5760003560e01c80638bcb9428116100665780638bcb942814610105578063f79ba0c81461010d578063f7f6a97114610115578063fca6195e14610140578063fdc609671461015357600080fd5b8063330afd93146100a35780633a3f8239146100c257806344284512146100d7578063514fcac7146100df5780636311e830146100f2575b600080fd5b6100ab600181565b60405160ff90911681526020015b60405180910390f35b6100d56100d036600461102a565b610166565b005b6100ab600381565b6100d56100ed36600461102a565b6102c6565b6100d561010036600461102a565b610535565b6100ab600281565b6100ab600481565b600a54610128906001600160a01b031681565b6040516001600160a01b0390911681526020016100b9565b6100d561014e366004611043565b610778565b6100d56101613660046111f5565b610a98565b336000908152600f6020526040812054900361018157600080fd5b6000818152600c602052604090206007015460ff166001146101e35760405162461bcd60e51b815260206004820152601660248201527527b93232b91030b63932b0b23c9031b630b4b6b2b21760511b60448201526064015b60405180910390fd5b336000908152600d60205260409020541561022f5760405162461bcd60e51b815260206004820152600c60248201526b223934bb32b910313ab9bc9760a11b60448201526064016101da565b6000818152600c602090815260408083206004810180546001600160a01b031916339081179091556007909101805460ff19166002179055808452600d909252808320849055517f871775b9059e94fc50139ba5717a31a412be4c917f6a38bf8b9d4e73fa043f1d926102bb928583526001600160a01b03918216602084015216604082015260600190565b60405180910390a150565b336000908152600f602052604081205490036102e157600080fd5b6000818152600c602052604090206007015460ff166001148061031857506000818152600c602052604090206007015460ff166002145b6103645760405162461bcd60e51b815260206004820152601f60248201527f4f72646572206e6f7420696e2063616e63656c6c61626c652073746174652e0060448201526064016101da565b6000818152600c60205260409020600101546001600160a01b031633146103cd5760405162461bcd60e51b815260206004820152601f60248201527f4f6e6c7920637573746f6d65722063616e2063616e63656c206f726465722e0060448201526064016101da565b600a546040516370a0823160e01b81523060048201526001600160a01b03909116906370a0823190602401602060405180830381865afa158015610415573d6000803e3d6000fd5b505050506040513d601f19601f8201168201806040525081019061043991906112a8565b6000828152600c6020526040902060050154106104985760405162461bcd60e51b815260206004820152601b60248201527f4e6f7420656e6f75676820746f6b656e7320696e207661756c742e000000000060448201526064016101da565b6000818152600c6020526040902060050154600a546104c4916001600160a01b03909116903390610cfe565b6000818152600c6020908152604080832060078101805460ff19166004908117909155908101546001600160a01b03168452600d8352818420939093558051848152918201929092527fdc207f1583803c4a4bb1aa43a423125c6eafabd2ef9f01deebc2718a07d88f2791016102bb565b336000908152600f6020526040812054900361055057600080fd5b6000818152600c602052604090206007015460ff166002146105b45760405162461bcd60e51b815260206004820152601c60248201527f4f72646572206e6f7420696e20636c61696d6564207374617475732e0000000060448201526064016101da565b6000818152600c60205260409020600401546001600160a01b0316331461061d5760405162461bcd60e51b815260206004820152601e60248201527f4f6e6c7920647269766572206d61792066756c66696c6c206f726465722e000060448201526064016101da565b600a546040516370a0823160e01b81523060048201526001600160a01b03909116906370a0823190602401602060405180830381865afa158015610665573d6000803e3d6000fd5b505050506040513d601f19601f8201168201806040525081019061068991906112a8565b6000828152600c6020526040902060050154106106e85760405162461bcd60e51b815260206004820152601b60248201527f4e6f7420656e6f75676820746f6b656e7320696e207661756c742e000000000060448201526064016101da565b6000818152600c6020526040902060050154600a54610714916001600160a01b03909116903390610cfe565b6000818152600c60209081526040808320600701805460ff19166003908117909155338452600d8352818420939093558051848152918201929092527fdc207f1583803c4a4bb1aa43a423125c6eafabd2ef9f01deebc2718a07d88f2791016102bb565b336000908152600f6020526040812054900361079357600080fd5b600a546040516370a0823160e01b815233600482015284916001600160a01b0316906370a0823190602401602060405180830381865afa1580156107db573d6000803e3d6000fd5b505050506040513d601f19601f820116820180604052508101906107ff91906112a8565b101561080a57600080fd5b600a546040516323b872dd60e01b8152336004820152306024820152604481018590526000916001600160a01b0316906323b872dd906064016020604051808303816000875af1158015610862573d6000803e3d6000fd5b505050506040513d601f19601f8201168201806040525081019061088691906112c1565b9050806108d55760405162461bcd60e51b815260206004820152601d60248201527f556e61626c6520746f206c6f636b2075702062696420616d6f756e742e00000060448201526064016101da565b6040805161012081018252600081830181905260608083018290526080830182905260c083015260e08201819052610100820152600b5481523360208083019190915260a082018790528251601f86018290048202810182019093528483529091908590859081908401838280828437600092018290525060c0860194855242610100870152600160e08701819052600b548252600c6020908152604092839020885181559088015191810180546001600160a01b03199081166001600160a01b039485161790915592880151600282018054851691841691909117905560608801516003820180548516918416919091179055608088015160048201805490941692169190911790915560a08601516005820155935185949350600684019250610a01915082611372565b5060e082015160078201805460ff191660ff90921691909117905561010090910151600890910155600b8054906000610a3983611447565b91905055507fb1147f852fc43e7f848e0139b512feb6ad9e1b0c47d4071cc28af776ebeac77d8160000151826020015183604001518460a001518560c00151604051610a89959493929190611460565b60405180910390a15050505050565b6060810151610260015160005414610ac35760405163725a844f60e01b815260040160405180910390fd5b6060810151610100015160015414610aee576040516309763aff60e11b815260040160405180910390fd5b6040805160c08101825260025460ff90811615158252600354602083015260048054909116151582840152825160808101938490526000937f00000000000000000000000000000000000000000000000000000000000000006001600160a01b03169363d1ea63a29390926060840192909160059182845b815481526020019060010190808311610b6657505050918352505060408051606081019182905260209092019190600990600390826000855b825461010083900a900460ff161515815260206001928301818104948501949093039092029101808411610b9f57905050505050508152602001858152506040518263ffffffff1660e01b8152600401610bf991906115b9565b61018060405180830381865afa158015610c17573d6000803e3d6000fd5b505050506040513d601f19601f82011682018060405250810190610c3b91906116c7565b9050610c4a8160a00151610d55565b15610cb6576060810180516000908152600e60208181526040808420546001600160a01b039081168552600f80845282862086905596820180518751875294845282862080546001600160a01b0319169583169590951790945594519251909416835293909352205550565b60405162461bcd60e51b815260206004820152601760248201527f55736572206e6f74206f66616320617070726f7665642e00000000000000000060448201526064016101da565b604080516001600160a01b038416602482015260448082018490528251808303909101815260649091019091526020810180516001600160e01b031663a9059cbb60e01b179052610d50908490610d7b565b505050565b600080610d6183610df2565b90506000610d73826001600080610f81565b949350505050565b600080602060008451602086016000885af180610d9e576040513d6000823e3d81fd5b50506000513d91508115610db6578060011415610dc3565b6001600160a01b0384163b155b15610dec57604051635274afe760e01b81526001600160a01b03851660048201526024016101da565b50505050565b80516060907f30644e72e131a029b85045b68181585d2833e84879b9709143e1f593f0000001111580610e49575060208201517f30644e72e131a029b85045b68181585d2833e84879b9709143e1f593f000000111155b80610e78575060408201517f30644e72e131a029b85045b68181585d2833e84879b9709143e1f593f000000111155b15610e9657604051633ae4ed6b60e01b815260040160405180910390fd5b60408051606081018252601f80825260208201819052818301528151605d808252608082019093529091600091906020820181803683370190505090506000805b6003811015610f77576000868260038110610ef457610ef46114d8565b6020020151905060005b858360038110610f1057610f106114d8565b602002015160ff168160ff161015610f6d578160ff1660f81b858580610f3590611447565b965081518110610f4757610f476114d8565b60200101906001600160f81b031916908160001a90535060089190911c90600101610efe565b5050600101610ed7565b5090949350505050565b6000831580610f985750610f9485610fd9565b6001145b8015610fb45750821580610fb45750610fb085610ffc565b6001145b8015610fd05750811580610fd05750610fcc8561101b565b6001145b95945050505050565b600081605a81518110610fee57610fee6114d8565b016020015160f81c92915050565b60008161100b605a600161174d565b81518110610fee57610fee6114d8565b60008161100b605a600261174d565b60006020828403121561103c57600080fd5b5035919050565b60008060006040848603121561105857600080fd5b83359250602084013567ffffffffffffffff81111561107657600080fd5b8401601f8101861361108757600080fd5b803567ffffffffffffffff81111561109e57600080fd5b8660208284010111156110b057600080fd5b939660209190910195509293505050565b634e487b7160e01b600052604160045260246000fd5b6040516080810167ffffffffffffffff811182821017156110fa576110fa6110c1565b60405290565b60405160e0810167ffffffffffffffff811182821017156110fa576110fa6110c1565b604051601f8201601f1916810167ffffffffffffffff8111828210171561114c5761114c6110c1565b604052919050565b600082601f83011261116557600080fd5b60006111716040611123565b905080604084018581111561118557600080fd5b845b8181101561119f578035835260209283019201611187565b509195945050505050565b600082601f8301126111bb57600080fd5b60006102a06111c981611123565b9150830181858211156111db57600080fd5b845b8281101561119f5780358252602091820191016111dd565b60006103a082840312801561120957600080fd5b5060006112146110d7565b61121e8585611154565b815284605f85011261122e578182fd5b604061123981611123565b8060c087018881111561124a578586fd5b6040880195505b80861015611274576112638987611154565b835294830194602090920191611251565b8160208601526112848982611154565b60408601525050505061129b8561010086016111aa565b6060820152949350505050565b6000602082840312156112ba57600080fd5b5051919050565b6000602082840312156112d357600080fd5b815180151581146112e357600080fd5b9392505050565b600181811c908216806112fe57607f821691505b60208210810361131e57634e487b7160e01b600052602260045260246000fd5b50919050565b601f821115610d5057806000526020600020601f840160051c8101602085101561134b5750805b601f840160051c820191505b8181101561136b5760008155600101611357565b5050505050565b815167ffffffffffffffff81111561138c5761138c6110c1565b6113a08161139a84546112ea565b84611324565b6020601f8211600181146113d457600083156113bc5750848201515b600019600385901b1c1916600184901b17845561136b565b600084815260208120601f198516915b8281101561140457878501518255602094850194600190920191016113e4565b50848210156114225786840151600019600387901b60f8161c191681555b50505050600190811b01905550565b634e487b7160e01b600052601160045260246000fd5b60006001820161145957611459611431565b5060010190565b8581526001600160a01b038581166020830152841660408201526060810183905260a0608082018190528251908201819052600090815b818110156114b457602081860181015160c0868401015201611497565b50600060c0828501015260c0601f19601f8301168401019150509695505050505050565b634e487b7160e01b600052603260045260246000fd5b8060005b6003811015610dec57815115158452602093840193909101906001016114f2565b8060005b6002811015610dec578151845260209384019390910190600101611517565b611541828251611513565b60208101516040830160005b600281101561157757611561828451611513565b602092909201916040919091019060010161154d565b505050604081015161158c60c0840182611513565b506060810151610100830160005b601581101561136b57825182526020928301929091019060010161159a565b60006104e0820190508251151582526020830151602083015260408301511515604083015260608301516060830160005b60048110156116095782518252602092830192909101906001016115ea565b505050608083015161161e60e08401826114ee565b5060a0830151611632610140840182611536565b5092915050565b60006116456060611123565b905080606083018481111561165957600080fd5b835b8181101561167357805183526020928301920161165b565b50505092915050565b600082601f83011261168d57600080fd5b60006116996080611123565b90508060808401858111156116ad57600080fd5b845b8181101561119f5780518352602092830192016116af565b60006101808284031280156116db57600080fd5b5060006116e6611100565b835181526020808501519082015260408085015190820152606080850151908201526080808501519082015260bf84018513611720578182fd5b61172d8560a08601611639565b60a082015261174085610100860161167c565b60c0820152949350505050565b8082018082111561176057611760611431565b9291505056fea26469706673582212207d520d76e49d4a2096b2cefff533410f833e7cdf0fc575146666db35f8c959ee64736f6c634300081c0033","linkReferences":{}},"methodIdentifiers":{"STATUS_ORDER_CANCELLED()":"f79ba0c8","STATUS_ORDER_CLAIMED()":"8bcb9428","STATUS_ORDER_FULFILLED()":"44284512","STATUS_ORDER_SUBMITTED()":"330afd93","cancelOrder(uint256)":"514fcac7","claimOrder(uint256)":"3a3f8239","fulfillOrder(uint256)":"6311e830","operatingToken()":"f7f6a971","placeOrder(uint256,string)":"fca6195e","verifySelfProof((uint256[2],uint256[2][2],uint256[2],uint256[21]))":"fdc60967"},"id":51}